{
  "contractName": "Bank",
  "abi": [
    {
      "inputs": [],
      "name": "deposit",
      "outputs": [],
      "stateMutability": "payable",
      "type": "function"
    },
    {
      "inputs": [
        {
          "internalType": "uint256",
          "name": "amount",
          "type": "uint256"
        }
      ],
      "name": "withdraw",
      "outputs": [],
      "stateMutability": "nonpayable",
      "type": "function"
    },
    {
      "inputs": [
        {
          "internalType": "address",
          "name": "account",
          "type": "address"
        }
      ],
      "name": "balanceOf",
      "outputs": [
        {
          "internalType": "uint256",
          "name": "",
          "type": "uint256"
        }
      ],
      "stateMutability": "view",
      "type": "function"
    }
  ],
  "bytecode": "0x608060405234801561001057600080fd5b506103fb806100206000396000f3fe6080604052600436106100345760003560e01c80632e1a7d4d1461003957806370a0823114610062578063d0e30db01461009f575b600080fd5b34801561004557600080fd5b50610060600480360381019061005b919061024f565b6100a9565b005b34801561006e57600080fd5b5061008960048036038101906100849190610226565b61015d565b6040516100969190610287565b60405180910390f35b6100a76101a5565b005b806100b33361015d565b10156100be57600080fd5b806000803373ffffffffffffffffffffffffffffffffffffffff1673ffffffffffffffffffffffffffffffffffffffff168152602001908152602001600020600082825461010c91906102f8565b925050819055503373ffffffffffffffffffffffffffffffffffffffff166108fc829081150290604051600060405180830381858888f19350505050158015610159573d6000803e3d6000fd5b5050565b60008060008373ffffffffffffffffffffffffffffffffffffffff1673ffffffffffffffffffffffffffffffffffffffff168152602001908152602001600020549050919050565b346000803373ffffffffffffffffffffffffffffffffffffffff1673ffffffffffffffffffffffffffffffffffffffff16815260200190815260200160002060008282546101f391906102a2565b92505081905550565b60008135905061020b81610397565b92915050565b600081359050610220816103ae565b92915050565b60006020828403121561023857600080fd5b6000610246848285016101fc565b91505092915050565b60006020828403121561026157600080fd5b600061026f84828501610211565b91505092915050565b6102818161035e565b82525050565b600060208201905061029c6000830184610278565b92915050565b60006102ad8261035e565b91506102b88361035e565b9250827fffffffffffffffffffffffffffffffffffffffffffffffffffffffffffffffff038211156102ed576102ec610368565b5b828201905092915050565b60006103038261035e565b915061030e8361035e565b92508282101561032157610320610368565b5b828203905092915050565b60006103378261033e565b9050919050565b600073ffffffffffffffffffffffffffffffffffffffff82169050919050565b6000819050919050565b7f4e487b7100000000000000000000000000000000000000000000000000000000600052601160045260246000fd5b6103a08161032c565b81146103ab57600080fd5b50565b6103b78161035e565b81146103c257600080fd5b5056fea2646970667358221220c11925a06b48ee634f78b87ed6c1ca4270c76b7eebdcaf8b02aeea03aed5164664736f6c63430008000033",
  "immutableReferences": {},
  "source": "// SPDX-License-Identifier: MIT\npragma solidity ^0.8.0;\n\ncontract Bank {\n\n    mapping (address => uint256) private _balances;\n\n    function deposit() payable public {\n        _balances[msg.sender] += msg.value;\n    }\n\n    function withdraw(uint256 amount) public {\n        require(balanceOf(msg.sender) >= amount);\n        _balances[msg.sender] -= amount;\n        payable(msg.sender).transfer(amount);\n    }\n\n    function balanceOf(address account) public view returns(uint256){\n        return _balances[account];\n    }\n}",
  "sourcePath": "/home/both/work-space/10xbank/truffle_10XBank/contracts/Bank.sol",
  "compiler": {
    "name": "solc",
    "version": "0.8.0+commit.c7dfd78e.Emscripten.clang"
  },
  "schemaVersion": "3.4.8",
  "updatedAt": "2022-07-17T11:31:15.547Z",
  "devdoc": {
    "kind": "dev",
    "methods": {},
    "version": 1
  },
  "userdoc": {
    "kind": "user",
    "methods": {},
    "version": 1
  }
}